:100000000C942D020C9465020C9465020C9465020C
:100010000C9465020C9465020C9465020C946502C4
:100020000C9465020C9465020C94AC240C947F250E
:100030000C94211F0C9465020C9465020C946502CB
:100040000C9465020C9465020C9465020C94650294
:100050000C9465020C94B91F0C9465020C94650213
:100060000C9465020C9465020C9465020C94650274
:100070000C9465020C9465020C9465020C94650264
:100080000C9465020C9465020C9465020C94650254
:100090000C9465020C9465020C9465020C94650244
:1000A0000C9465020C9465020C946502800081003A
:1000B00080008100800081008000810014001A000F
:1000C0000800150017001C0018000C001200130097
:1000D00004001600070009000A000B000D000E00C6
:1000E0000F002A001D221B00060019000500110048
:1000F0001000360037003832E000E2002C282B4197
:100100002842290000000000000000002D022D0000
:100110002E022E0033023500BC00AE00BB004C00A6
:100120002F0226022702300231022900500052001D
:1001300051004F002F2234003402300033003502CA
:10014000AA00A800A900313201000100010001004D
:100150000100010000000000000000001E021F025C
:1001600020022102220223022402250239002A0051
:100170001E001F0020002100220023002400250073
:1001800026002700E10000000000000023520000CC
:100190000000360037003832010001000100010084
:1001A000010001000000000000000000000000004D
:1001B000000000000000000000000000000000003F
:1001C0003A003B003C003D003E003F004000410043
:1001D00042004300440000000000007C01000000D9
:1001E00000000000000045000100010001000100C6
:1001F00001000100000000000000000000000000FD
:10020000000000002A2B2800000000000000000071
:100210000000000000000029000000002C1E342017
:10022000212224342627252E362D3738271E1F203D
:100230002122232425263333362E37381F04050682
:100240000708090A0B0C0D0E0F10111213141516C6
:100250001718191A1B1C1D2F3130232D35040506C4
:100260000708090A0B0C0D0E0F10111213141516A6
:100270001718191A1B1C1D2F3130354C00000000B7
:10028000000000000000000000000000000000006E
:10029000000000000000000000000000000000005E
:1002A0007E0F00D4FFFFFFC7000000780A03720032
:1002B000650033003600000012034B006500650046
:1002C000620053007400610072000000040309041E
:1002D00009025B00030100A0FA0904000001030108
:1002E00001000921110100012244000705810308D2
:1002F00000010904010002030000000921110100AE
:1003000001222200070582032000010705030320C4
:10031000000109040200010300000009211101008D
:100320000122B6000705840320000112010002002B
:10033000000008787601000001010200010660FF5C
:100340000961A1010962150026FF00952075088149
:10035000020963150026FF00952075089102C0056B
:10036000010902A10185020901A10005091901295C
:10037000081500250195087501810205010930095C
:10038000311581257F95027508810609381581256B
:100390007F950175088106050C0A38021581257FB5
:1003A000950175088106C0C005010980A10185037A
:1003B00019012AB700150126B700950175108100B3
:1003C000C0050C0901A101850419012AA00215012B
:1003D00026A002950175108100C005010906A10142
:1003E0008506050719E029E715002501950875011F
:1003F00081020507190029EF1500250195F0750107
:1004000081020508190129059505750191029501DB
:1004100075039101C005010906A101050719E0292D
:10042000E715002501950875018102950175088180
:10043000010507190029FF150026FF00950675081C
:10044000810005081901290515002501950575018B
:100450009102950175039101C00011241FBECFEFD9
:10046000DAE0DEBFCDBF04B603FE18C08091D20231
:100470009091D302A091D402B091D5028730904BD5
:10048000A740B04B59F41092D2021092D3021092AE
:10049000D4021092D502E0E0F8E3099511E0A0E063
:1004A000B1E0ECECF0E502C005900D92A43BB10781
:1004B000D9F722E0A4EBB1E001C01D92A23DB20742
:1004C000E1F70E94F0110C94FE270C940000982F85
:1004D000962B9430A8F44A3098F4E42FF0E09AE098
:1004E000699FE00DF11D112498E2899FE00DF11D37
:1004F0001124EE0FFF1FE454FF4F8591949108954E
:1005000081E090E00895843088F461110FC0E82FF5
:10051000F0E0EE0FFF1F81E04827E40FF11DEE0F22
:10052000FF1FE455FF4F85919491089581E090E07D
:10053000089581E008950E949902089581E0089548
:100540000E94990208950E94A002089508950E94B1
:10055000A6020895A6E0B0E0E0EBF2E00C945A2782
:1005600049835A839E833091BB0189819A813111DD
:100570001AC03E81332399F0222389F00E9441085A
:10058000182F682F89819A810E940E0869817A81CB
:10059000812F0E94830F2696E3E00C9476270E9419
:1005A0002808182FF3CF0E94410869817A81F1CF82
:1005B000FC01262F40815181628173818481958164
:1005C0000E94AA020895CF93DF93D82FC92F61E02C
:1005D0000E94D8026D2F7C2F0E949B02DF91CF9149
:1005E0000895CF93DF93D82FC92F60E00E94D802DF
:1005F0006D2F7C2F0E94A702DF91CF91089581E09B
:1006000008950E94FF020895CF93C82F0E94020709
:100610008C2F0E9401032FEF84E39CE02150804047
:100620009040E1F700C00000CF91089581E00E9462
:1006300004030E94DD1F089580E00E9404030E94CD
:10064000012008950F931F93CF93DF938C0161E0F6
:100650000E94D802EC01B8010E94B21B882309F461
:1006600042C0B801CE010E94A3028823E1F1B80183
:10067000CE010E94C01A8823B1F1B801CE010E94B8
:10068000D015882381F1B801CE010E94A5158823D9
:1006900051F1B801CE010E94011B882321F1F8011C
:1006A0008581882381F0CA35FCE7DF0739F178F4CA
:1006B000C130ECE7DE07F9F0C330FCE7DF07C9F033
:1006C000C115DC4771F0C8010E949E020DC0CB35F8
:1006D000ECE7DE07B1F0CC35DC47A9F70E94930CBC
:1006E000F2CF0E94160380E0DF91CF911F910F910E
:1006F00008950E94A50C0E941C03F5CF0E949D0C3A
:10070000E2CF0E94A10CDFCF0E94FD1E0E94AB032E
:1007100008950E94AF030E94021F0895089581E08A
:1007200008950895CF93DF93D82F0E948F03C82F89
:10073000882319F08D2F0E9491038C2FDF91CF9188
:1007400008950895CF93C82F0E948E038C2F0E9486
:100750009203CF91089580E00E94A20308950E9421
:10076000391D0E94A2030895CF930E94391DC82FFE
:100770008091B6018C1779F0C093B6010E948D1F4D
:100780006093B7017093B8018093B9019093BA0157
:100790008C2F0E94A203CF910895ADE0B0E0E3ED6D
:1007A000F3E00C945B27488759876A877B878C879F
:1007B0009D8791110E949E0B1F8286E0FE01389654
:1007C000DE01119601900D928A95E1F78D818111DC
:1007D0000DC029813A814B815C816D817E818F8141
:1007E0000E94E40A2D96E2E00C947727CE01019650
:1007F0000E94E3028111EDCFF5CFFC0184818130AD
:1008000021F4808191810E946A080895662329F06D
:100810000E943E170E94141808950E949C17FACF58
:10082000CF93C82F882399F08CEF8C0F813A88F4EE
:100830008C2F0E94DC1D882329F08C2F0E94811EA2
:100840000E94360C8C2F0E946A1E0E94360CCF919B
:10085000089580E28C0F883048F4C77081E001C0B1
:10086000880FCA95EAF70E947F0BEFCF8BE58C0FBC
:10087000833038F42C2F2452330BC9010E946F1D92
:10088000E6CFE8E5EC0FEB3150F4F0E0EE0FFF1FA0
:10089000E65EFE4F808191810E94951DD8CF83E353
:1008A0008C0F8331A0F661E08C2F0E940604CFCF1D
:1008B000882381F19CEF980F913A28F40E94811EC1
:1008C0000E94360C089590E2980F983050F487708B
:1008D00091E001C0990F8A95EAF7892F0E94850B54
:1008E000EFCF9BE5980F933028F480E090E00E94D2
:1008F0006F1D089598E5980F9B3128F480E090E0F3
:100900000E94951D089593E3980F933118F460E0C9
:100910000E94060408951F93CF93DF93182FEB01D5
:100920000E941004209739F4812F0E945804DF910F
:10093000CF911F9108958FE99FE00197F1F700C0D3
:1009400000002197EFCF60E070E0893311F460E59B
:1009500070E00E948B040895882321F00E947F0B91
:100960000E94360C0895882321F00E94850B0E9476
:10097000360C0895A0E0B0E0E0ECF4E00C945527CC
:100980006C01D62FC72FFC011581068102950F70CF
:100990000E94740BE82E8823F9F0E12E1123E1F078
:1009A0008C2F807F803461F080E28D0F8830F0F0F2
:1009B0008C2F807E803221F4D230C0F00023B1F041
:1009C0008091B00282FF12C082E00E94660C0E94F9
:1009D000740B91E0E82EE926EC2FE295EF70C03C15
:1009E000B0F5F0E0E050F84D0C943E27E12CF4CF48
:1009F0000C2F0F70C03110F00295007F112399F079
:100A0000002359F080E28D0F883010F0D11107C01B
:100A1000802F0E947F0B0E94360C8D2F51C0802F9B
:100A20000E94900BF8CF8D2F0E945804002379F07C
:100A300080E28D0F883010F0D11104C0802F0E9409
:100A4000850B03C0802F0E94960B0E94360CEE206F
:100A500089F00E94700B80FD0DC0F60115820E9486
:100A60006A0B0E947C07C6010E94C9060E946A0B9D
:100A70000E948807CDB7DEB7E8E00C947127FC2F01
:100A8000FF70FF2EC07FC03219F0F29480EFF82281
:100A9000DD2341F0D130D1F1112309F444C000230A
:100AA000F1F0BBCF8091B00282FD15C0112359F047
:100AB000FF2029F08F2D0E947F0B0E94360C80E0D2
:100AC0000E941004C4CF80E00E945804FF2009F463
:100AD000BECF8F2DB4CF112369F0011104C08F2D2B
:100AE0000E94AC04B4CF013009F0B1CF8F2D0E9429
:100AF000B60BADCF0111ABCF8F2D0E94B3048F2D5C
:100B00000E94C20B8F2D0E94A50BA1CF112321F0B3
:100B1000063008F09CCFE3CF053008F098CF8F2D3A
:100B20000E94B30494CF0023D1F3D93349F42FEFBB
:100B300087EE93E0215080409040E1F700C0000034
:100B40008D2F0E94580483CF8C2F869586958370B5
:100B5000882369F0813009F07ACF8D2F9C2F937014
:100B6000111102C080E090E00E94951D70CF8D2F82
:100B70009C2F9370111102C080E090E00E946F1DC5
:100B800066CF612F8D2F0E94060461CF8C2F83705A
:100B9000811134C0111124C04D2F429546954770E4
:100BA000440F440F8D2F8F70042E01C0880F0A94BC
:100BB000EAF7D071DD2341F02FE030E001C0220FD1
:100BC0004A95EAF7D22FD095C695C695C3708D2B5E
:100BD000C23071F0C33079F0C13039F00E9458074B
:100BE0000E94391D0E94A20332CF0E945207F8CF03
:100BF0000E945E07F5CF0E944F07F2CF112339F113
:100C0000C0FFEECF4D2F429546954770440F440FDD
:100C10008D2F8F70042E01C0880F0A94EAF7D071CF
:100C2000DD2341F02FE030E001C0220F4A95EAF7C2
:100C3000D22FD095C695C695C3708D2BC23069F062
:100C4000C33071F0C13031F00E94AA07C9CF8230A1
:100C500038F2D8CF0E94A407C3CF0E94B007C0CFFC
:100C60000E946A07BDCFCF70112339F08C2F0E94EC
:100C70007C078D2F0E94AC04B3CF8D2F0E94B3044C
:100C80008C2F0E948807ACCFD23F31F170F4D03F57
:100C9000B9F0D13FB1F1112309F451C0002309F497
:100CA0004BC08D2F0E9410049BCFD33FE1F0D43F67
:100CB00021F11111F3CF011150C08C2F8F71E1CFB1
:100CC000112341F0053008F08BCF8C2F8F710E94DB
:100CD000980786CF0530F7CF8C2F8F711111D1CFA8
:100CE0000E947C077DCF112329F08C2F8F710E94E9
:100CF000730776CF0E946F0773CF8091B00282FD99
:100D000006C08C2F8F71112309F4BBCFE9CF1123BB
:100D100049F0CF718C2F0E947C0763E08C2F0E94DA
:100D2000480C5ECF81E00E94660C023008F458CF78
:100D300082E00E94660C54CF8C2F8F71D1CF00239C
:100D400009F4BBCFD93349F4EFEFF7EE23E0E150DC
:100D5000F0402040E1F700C000008D2F0E945804B1
:100D60003FCF0F931F93CF93DF93EC01688179817D
:100D70008D810E9477088C010E94B6070E944E0761
:100D8000B801CE010E94BA04DF91CF911F910F915B
:100D90000895CF93DF93EC018C81882399F0CE01E5
:100DA0000E942203811111C00E94740B882351F00C
:100DB0008D81882339F08091B00282FF03C082E0E8
:100DC0000E94660CDF91CF910895CE010E94B1067A
:100DD000CE010E94F102F6CF80E090E00E946F1DEC
:100DE00080E090E00E94951D0E949E0B0E94360CB0
:100DF0000E9431180E94141808950E94981E0E94A3
:100E0000EC0608950E948D0B0E94FD060895282F80
:100E100092959F70963091F060F4925F9F7092303F
:100E200030F481E0203F79F030F4283E30F080E06B
:100E300008959A5FF3CF243FD1F7089581E0283ECB
:100E4000E0F3213FF9CF0895FC018481882339F034
:100E5000808191810E946A080E940707089580E0BE
:100E60000895A6E0B0E0E7E3F7E00C945B27269650
:100E7000E2E00C947727A7E0B0E0E1E4F7E00C941F
:100E80005B272796E2E00C94772708950E94450798
:100E900008950E9446078093CF01089508950E9407
:100EA000490708959091CF01892B0E944907089521
:100EB0009091CF0189230E94490708959091CF0115
:100EC00089270E94490708950E94450708950E94B6
:100ED000640708950E9467078093CE01089580E01B
:100EE0000E946A07089591E001C0990F8A95EAF778
:100EF000892F0E946A07089521E030E001C0220F87
:100F00008A95EAF78091CE01822B0E946A070895A4
:100F100021E030E0A90102C0440F551F8A95E2F795
:100F2000CA0180959091CE0189230E946A07089595
:100F300021E030E001C0220F8A95EAF78091CE01CE
:100F400082270E946A0708959091CE01892B0E9402
:100F50006A0708959091CE0189230E946A07089537
:100F60009091CE0189270E946A07089508959B01F8
:100F7000677091E001C0990F6A95EAF763E03695D2
:100F800027956A95E1F7B901660F771F260F371F7E
:100F9000FA01E20FF31F40E050E0682F70E081910A
:100FA000DF0111979B01042E02C0369527950A9404
:100FB000E2F7217021952827292328272C934F5FBA
:100FC0005F4F4330510559F708959C01A82FA77032
:100FD00083E0369527958A95E1F7C901880F991F17
:100FE000820F931FFB01E80FF91F40E050E080E003
:100FF000219130E00A2E02C0369527950A94E2F737
:1010000021703327042E01C0220F0A94EAF7822BA5
:101010004F5F5F4F4330510559F70895282F862FB2
:10102000943070F42A3058F4622F70E02AE0929FD6
:10103000600D711D11244FEB51E00E94B707089518
:101040009C5F9230E0F7622F70E04CEB51E0F5CFFF
:10105000292F943068F48A3090F490E06FEB71E0BF
:101060003AE0239F800D911D11240E94E507089509
:101070002C5F223020F46CEB71E090E0F6CF80E042
:101080000895A0E0B0E0E7E4F8E00C9456277C0176
:101090000091CE018091CF01082BC3E0D0E010E099
:1010A000C8010C2E02C0959587950A94E2F780FD41
:1010B00009C02197A8F7D12C8D2DCDB7DEB7E7E079
:1010C0000C947227DC2EB7018C2F0E949C0F019785
:1010D00081F3F2CFCF93DF93D82FC92F0E9441081D
:1010E0006D2F7C2F0E949C0FDF91CF9108951F934D
:1010F000CF93DF93162FD72F9091BB01992341F007
:10110000862F972F0E946A08DF91CF911F91089533
:10111000882381F0862F972F0E944108C82F682FBF
:10112000812F9D2F0E940E08612F7D2F8C2F0E94F2
:101130009C0FEACF862F972F0E942808C82FF4CF44
:10114000E1E0F0E0DF0102C0AA0FBB1F6A95E2F701
:10115000BD01DF0102C0AA0FBB1F4A95E2F76A2B4F
:1011600001C0EE0F2A95EAF7962F9823961302C036
:101170008E2B0895E0958E230895242F462F682FF7
:101180008091CE010E94A0080E946A0708950F93E3
:101190001F93CF93E091D001C7E08091D1018E13CE
:1011A00004C0CF911F910F9108950E2F10E0CE9F94
:1011B000F0011124EE52FE4F208131814281538192
:1011C0006481758186810E943B07F8013196E77042
:1011D000E4CF20910A0230910B0240910C02509111
:1011E0000D0260910E0270910F02809110020E9418
:1011F0003B07089580911002803178F480910F02AE
:10120000882359F0E091D0012091D10130910B0257
:1012100040910A0257E02E1301C008956E2F70E02E
:101220005E9FF0011124DF01AE52BE4F14968C91E7
:101230001497882361F111968C911197831327C01D
:101240008C91841324C015968C91159781111FC021
:1012500012968D919C91A0910C02B0910D028A1B67
:101260009B0B883C910598F4809110028F708061EF
:1012700080931002E852FE4F80818F7080618083DE
:101280008AE092E00E94C9060E94C7080895FB0107
:101290003196E770C0CFE091D0019091D10127E065
:1012A000E91302C080E00895AE2FB0E02E9FF00158
:1012B0001124EE52FE4F3181361306C030813813AF
:1012C00003C03581341304C0FD013196E770E8CFC7
:1012D00081E008958F929F92AF92BF92DF92EF923A
:1012E000FF920F931F93CF93DF93CDB7DEB72D9768
:1012F0000FB6F894DEBF0FBECDBF8C0186E0F801BB
:10130000DE01189601900D928A95E1F7F801E080D0
:10131000F580A280B38084819AE0892E92E0992E94
:1013200090910E0291111BC0882309F4FCC0FF208C
:1013300009F43DC1C8010E942407882309F437C17C
:1013400087E0F801D40101900D928A95E1F7C4017C
:101350000E94FD030E94FA080E94E908E4C0D090B0
:101360000F0220910C0230910D02A501421B530B7C
:10137000DD2009F4DBC0483C510508F0A6C08823F5
:1013800009F4D1C090910B029180809110028031BC
:1013900008F06BC0991228C090910A029E1124C0D7
:1013A000F1105DC08F708061809310020E94E90887
:1013B0008AE092E00E94C90680911002F8018683BB
:1013C000F12C8F2D2D960FB6F894DEBF0FBECDBF3A
:1013D000DF91CF911F910F91FF90EF90DF90BF9021
:1013E000AF909F908F900895F11039C040E0692D23
:1013F0008E2D0E944B0940E0692D8E2D0E944B09D5
:10140000F82E8111DDCF888599850E946A08292FE1
:1014100022952F70903450F49F70223080F09923E1
:1014200099F0F8019681903178F4CBCF2A5F2F7034
:10143000223078F0C8010E94C906FD2CC2CF992342
:1014400019F0882309F4BDCF805E883008F4B9CF45
:10145000F1CF803F08F4B5CF815F8230F7CF809124
:101460001002816080931002ABCF991207C0909157
:101470000A029E1103C0FF2009F479C0C8010E942E
:101480002407882309F493C0FF2009F490C08091B9
:101490001002803288F020910A0230910B023A83C8
:1014A0002983BC82AB8290910E029D831E828F8322
:1014B000CE0101960E94C90687E0F801AAE0B2E0D9
:1014C00001900D928A95E1F745CF909110029031ED
:1014D000A0F4488559856A857B858C859D850E9409
:1014E00031078AE092E00E94C90687E0F401119278
:1014F0008A95E9F70E94E90863CF8823A1F020913B
:101500000B0281812813BACF80910A028E11B6CFC7
:10151000F110B4CF9683C8010E94C90687E0F40198
:1015200011928A95E9F7FF24F3944BCF483C51057B
:1015300008F041C08823B9F3FF20C9F190910B0254
:10154000818198132AC080910A028E1126C0809151
:10155000100280FD19C08031B8F08683807F803F03
:1015600039F08681982F907F905F8F70892B8683CA
:10157000C8010E94C90687E0F801AAE0B2E0019024
:101580000D928A95E1F7E8CE87E0F801AAE0B2E093
:1015900001900D928A95E1F7C6CFC8010E942407F9
:1015A00081118ACF80911002816080931002C8015E
:1015B0000E94C906B8CF488559856A857B858C8588
:1015C0009D850E94310791CFAEE0B0E0EAEEFAE0EF
:1015D0000C945A27288739874A875B876C877D87D1
:1015E0008E87CE0108960E946A098823B1F06C8527
:1015F000662341F0288539854A855B857D858E8502
:101600000E943B0717E08091D0019091D10189138E
:101610003EC02E96E3E00C94762787E0FE013896D4
:10162000DE01119601900D928A95E1F72091D1018A
:101630004091D0018C85882329F330E0C9010196BF
:101640008770992750E08417950799F097E0929F4B
:10165000D001939FB00D1124AE52BE4FFE013196C2
:1016600001900D929A95E1F78093D1010E94C708ED
:10167000C9CF0E9402071092D1011092D00187E0D9
:10168000EAE0F2E0DF011D928A95E9F7BBCF189FEF
:10169000C00111248E529E4F0E946A09882309F4CA
:1016A000B8CFE091D0011E9FF0011124EE52FE4F01
:1016B00020813181428153816481758186810E94BC
:1016C0003B078091D00190E0019687709927809325
:1016D000D00199CF80913902869586958695089597
:1016E000809139028770089590913902977081E056
:1016F000911101C080E00895809165020895909154
:101700006502982B909365020895982F909580918B
:1017100065028923809365020895109265020895F9
:1017200090916402982B909364020895982F90955D
:101730008091640289238093640208951092640268
:10174000089508950E94A10B089590913A02292FBF
:101750002823222331F08095892380933A020E9426
:10176000A20B089508950E94B20B089590913B0238
:10177000292F2823281729F0982B90933B020E94A9
:10178000B30B089590913B02292F2823222331F097
:101790008095892380933B020E94B30B089580912A
:1017A0003B02882329F010923B0280E00E94B30B99
:1017B0000895CF93DF93C091650280916402C82B96
:1017C000D0913B02DD2331F00E94BB1D81110E94AC
:1017D000CF0BCD2B8C2FDF91CF910895CF93DF933B
:1017E000C0910201D09103010E94D90B8883C0915E
:1017F0000201D091030148E050E061E372E0CE01C4
:101800000E949627892B59F088E0FE01A1E3B2E0FF
:1018100001900D928A95E1F7CE010E94461DDF915D
:10182000CF910895CF93DF93C0910001D091010132
:101830000E94D90B8983C0910001D091010140E23F
:1018400050E061E172E0CE010E949627892B59F0A9
:1018500080E2FE01A1E1B2E001900D928A95E1F7EC
:10186000CE010E94511DDF91CF9108958091190101
:10187000882339F08091AF0287FF03C00E94120CC9
:1018800008950E94EE0B089508950E94440C089557
:101890009091B00292FF11C098E0899F90011124AD
:1018A000622B609339020E947C07809139028695F1
:1018B000869586950E94450C08950E947C070895A0
:1018C0001092390280E00E94450C089590913902EF
:1018D0008095892380933902282F277021110DC00C
:1018E000891759F09091B00292FF07C086958695AE
:1018F00086950E9488070E94600C08959091B0021E
:1019000092FB222720F9281769F080FB92F9909327
:10191000B0028091AF029091B0020E94C70C82E0A9
:101920000E94660C08958091B00282FB882780F99E
:1019300091E089270E947E0C089581E00E947E0C30
:10194000089580E00E947E0C08956FEF7FEF80E0A5
:1019500090E00E94E827089580E090E00E94B4277C
:10196000863E9E4F19F40E943C1B089580E0089526
:1019700082E090E00E94AC27089583E090E00E940E
:10198000AC27089584E090E00E94B4270895BC013C
:1019900084E090E00E94E8270895AB01BC018FE04D
:1019A00090E00E94DC270895AB01BC0183E190E048
:1019B0000E94DC27089560E070E0CB010E94D40C07
:1019C000089560E070E0CB010E94CD0C0E94DB0C1A
:1019D0000895A8E0B0E0EFEEFCE00C945B2766EE23
:1019E0007EEF80E090E00E94E82760E082E090E0F7
:1019F0000E94CA2781E08093CF0161E083E090E0FC
:101A00000E94CA2760E074E184E090E00E94E82729
:101A100060E086E090E00E94CA2760E087E090E006
:101A20000E94CA2740E050E0BA0188E090E00E949E
:101A3000DC2760E084E290E00E94CA2760E087E152
:101A400090E00E94CA2760E08CE090E00E94CA27E4
:101A500060E08DE090E00E94CA2719821A821B8202
:101A60001C821D821E821F82188648E050E068E1B9
:101A700070E0CE0101960E94BA2740E050E0BA0122
:101A800080E290E00E94DC2780E00E94551B0E94CB
:101A9000941B0E94E10C2896E2E00C9477270E94A8
:101AA000E90C0895682F8EE090E00E94CA270895FF
:101AB000A6E0B0E0EEE5FDE00C9459270E94811FFE
:101AC0008C0180916602909167028017910779F0EE
:101AD00019821A820E94811FBC0149815A8180E0CB
:101AE00090E00E94CD031093670200936602269651
:101AF000E4E00C9475270E948D1F60937802709328
:101B0000790280937A0290937B02609374027093BF
:101B10007502809376029093770208950E948D1F3C
:101B2000609378027093790280937A0290937B029B
:101B300060937002709371028093720290937302AB
:101B40000895089508950E94A10D089508950E9492
:101B5000A60D089584E990E10E94FD110E94A20D56
:101B60000E94A30D089581E008950E94B30D089589
:101B70000E94B30D0895089508950E94BB0D0E9420
:101B8000BC0D08950E94AC0C811102C00E944F0D43
:101B90000E94B80C80937C020E94C20C9093B00209
:101BA0008093AF020E9497130E94BD0C0E944F07C2
:101BB0008091CE010E94670708950E94781F0E94BD
:101BC000A41B0E9405120E944D110E94C20D0E948A
:101BD000A1030E94A70D0895A6E0B0E0E2EFFDE0AA
:101BE0000C944F270E94B50D81110FC00E94580D13
:101BF0000E946C1281110E948E0D0E9452180E9448
:101C0000B4032696EEE00C946B270E94631128E63D
:101C1000822E22E0922E640110E0F601E190F19014
:101C20006F01812F0E949E101F5F143009F44DC078
:101C3000E816F90691F380917C0281FD0E94A710BD
:101C40000E94B80D782EF12C662463948F2D0E948B
:101C50009E108C01F401A190B1904F018A159B0553
:101C600069F1A826B926E12CCC24C394D12CC50156
:101C70008C219D21892BC1F07720B1F0E982FA8275
:101C80000E94811F9C838B836D8221E0C8018C217F
:101C90009D21892B09F420E049815A816B817C8147
:101CA0008D81922F0E94CD03E394CC0CDD1CFAE0D1
:101CB000EF12DDCFF401329711830083F39484E0B7
:101CC000F812C4CF0E947B0D93CFE816F90609F0F5
:101CD000B2CF8CCF1F93CF93DF930E94A10FEC0163
:101CE000811522E5920708F053C0811540E594075D
:101CF00008F0DDC0803E9105F8F48D3C910508F0B8
:101D0000AEC0883A910580F4853A910508F099C0F3
:101D10008130910521F00497813A910550F4CE016C
:101D2000DF91CF911F910895885A91094B9708F43C
:101D30008BC0C0E0D0E0F3CF811550E49507F8F4F4
:101D4000C11580E2D80708F0CBC0C83ED10538F3F2
:101D5000CE019A9581159F4160F78D2F0E94451005
:101D6000182FCE0199270E94A10F212F30E0322F8A
:101D70002227E901CC27DF71C82BD92BD0CF992797
:101D80000E94A10FCC27DF70C82BD92BD06AC7CFF8
:101D9000803842E59407C8F5803652E5950708F08B
:101DA00067C0C03482E5D807B0F08C2F8695869541
:101DB000877020E2829FC0011124C37021E030E0CF
:101DC000A90102C0440F551FCA95E2F7EA01C82BCA
:101DD000D92BDC68A4CFC03252E5D50708F041C04A
:101DE0008C2F8695869520E2829FC0011124C370B6
:101DF00021E030E0A90102C0440F551FCA95E2F767
:101E0000EA01C82BD92BDD688ACF803C52E59507C3
:101E100060F48F71C03AD24508F03FC090E0982F2F
:101E20008827EC01C46FD06A7ACF805C9245809796
:101E300008F07FCFDC2FCC27CC27DF71C06FD06AB2
:101E40006ECFA497D0646BCFC85AD0E0CC0FDD1F03
:101E5000C05BDE4F0990D881C02DD46460CFD065BF
:101E60005ECFCF71D0E0DC2FCC27C16FD06A57CFC7
:101E700086958695877020E2829FC0011124C370E9
:101E800021E030E0A90102C0440F551FCA95E2F7D6
:101E9000EA01C82BD92BDA6842CF0E944510C82F1F
:101EA000D0E0DC2FCC27CC27DF71D06238CF8F7108
:101EB0000E94451065E0D695C7956A95E1F7CF7009
:101EC000D0E0DC2FCC27282F30E084FF05C054E081
:101ED000220F331F5A95E1F7C22BD32BD0691FCFA6
:101EE0008D2F8F710E944510182FCE0199270E94C7
:101EF000A10F212F30E0322F222722273F71282BDC
:101F0000392BE901D2CF462F672F743028F44A309D
:101F100080F40E94B91408957D3F39F4411109C03D
:101F200041E060E00E94C51408957C3F11F4442311
:101F3000C1F380E090E008950E94830F0E946A0E32
:101F40000895803E9105D1F1C8F48133910509F4DB
:101F50007FC048F48932910509F46FC08A32910537
:101F600009F47DC0089589339105E1F08238910527
:101F7000C9F08533910509F45BC00895843E91054D
:101F8000D1F148F4823E910531F1833E910541F152
:101F900081EE90E00895863E9105C1F1873E91055E
:101FA000E1F108952091AF022370211165C02091C5
:101FB000B00223FF14C089E290E008952091AF029F
:101FC00020FD43C03091B00230FF09C024FF4EC055
:101FD00080E090E008952091AF0222FDF7CF0895B0
:101FE0002091AF0222FD45C03091B00230FD44C0C7
:101FF00024FFF5CFEDCF2091B00221FFF0CF8091EB
:10200000AF0284FDE5CF87EE90E008952091AF0206
:1020100023FFE5CF24FDDCCFF6CF2091AF0223FDD7
:102020002EC03091B00231FFE3CF84EE90E00895EE
:102030002091AF0225FFD3CFBECF2091AF0225FD67
:1020400021C02091B00223FFCACF89E390E0089518
:102050002091AF0226FFC3CF8AE290E0089520913D
:10206000AF0226FFBCCF81E390E0089583EE90E0BD
:10207000089582EE90E0089580EE90E0089586EE57
:1020800090E0089585E390E0AACF9091AF0292FF8F
:1020900010C041E0282F2471243009F040E031E0E5
:1020A000282F2871283009F030E0431711F02CE078
:1020B000822793FF10C041E0282F2471243109F0BA
:1020C00040E031E0282F2871283109F030E0431733
:1020D00011F02CE082273091B00230FF10C051E0A7
:1020E000282F2171213009F050E041E0282F28717C
:1020F000283009F040E0541711F029E0822731FF21
:1021000010C041E0282F2171213109F040E031E079
:10211000282F2871283109F030E0431711F029E009
:10212000822794FD877E089580E0089508950E9497
:102130009610089508950E949A100895E82FF0E0EF
:10214000EE0FFF1FE754FD4F8081918108950895A0
:1021500080EA8A95F1F7089500C008950E94A810BA
:102160000895F894E82FE295EF70F0E041A18F70A8
:1021700021E030E0B90102C0660F771F8A95E2F7CF
:10218000CB01962F9095942391A392A1892B82A3A2
:1021900078940895CF93DF9381E30E94B11083E395
:1021A0000E94B11082E30E94B11086E30E94B11038
:1021B000C6E8D1E089918F3F11F00E94B11081E013
:1021C000C039D807B9F7DF91CF910895A0E0B0E00A
:1021D000ECEEF0E10C945427EC01B62E062F10E043
:1021E000C80180579E4F7C01FC0180818F3F09F41C
:1021F0004FC0F894E82FE295EF70F0E091A18F7056
:1022000021E030E001C0220F8A95EAF7892F822B66
:1022100081A382A12095282322A378940E94AC1048
:10222000E6E8F1E041E050E0C12CD12C21912F3FB4
:1022300089F0A22FA295AF70A05EB0E08C9190E0E3
:102240002F7002C0959587952A95E2F781709A01C3
:10225000882311F020E030E0C22AD32A440F551F12
:1022600081E0E039F80711F7F70180818F3F11F025
:102270000E94B11061E0C114D10409F460E08B2D1B
:102280000E94AE10000F111FC00FD11FD982C8824B
:10229000CDB7DEB7E9E00C9470270E94CA1088E041
:1022A000E9EBF2E0DF01982F1D929A95E9F7E1EB57
:1022B000F2E0DF011D928A95E9F784E00E94A01107
:1022C0000E9497100895A8E0B0E0E9E6F1E10C94CF
:1022D0005827FE01319688E0DF011D928A95E9F7C3
:1022E00010E0FE2E0F2F612F8F2D902F0E94E610F1
:1022F0001F5F1430C1F748E050E06F2D702F81EB65
:1023000092E00E94962721E0892B81F420E044E0AE
:1023100069EB72E081EB92E00E94A111182F0E94FC
:102320009B10812F2896E5E00C94742788E0EF2D10
:10233000F02FA1EBB2E001900D928A95E1F7E7CF83
:102340000895A0E0B0E0E7EAF1E10C945527D82E1B
:10235000E92EF62ED72F042FC22F222379F081E009
:1023600080937F020E94811F90937E0280937D0262
:1023700080E0CDB7DEB7E8E00C947127C0907F0213
:10238000CC20B1F380917D0290917E020E94AA1F21
:10239000059770F310E0000F111FA8016D2D7E2D21
:1023A0008F2D9D2F0E949627892B41F0A8016D2D1E
:1023B0007E2D8F2D9D2F0E94A327CC2D10927F0262
:1023C0008C2FD7CF0E9484210E94DD0D0E94912185
:1023D00008950E9496210E94EC0D0E94B02108955C
:1023E0000E941A1F0E946A210E94AA0D0E94E211F7
:1023F0000E94E9110E94BD0DFBCF9093B50180931F
:10240000B40108950E94B30D0895E1E8F2E088E078
:10241000DF011D928A95E9F70E9421130895FC01BE
:1024200023812150330B23703327428150E081E018
:102430002417350709F080E008950F931F93CF9379
:10244000DF93EC01162F042F0E940F12811113C08D
:102450008A81FE01E80FF11D00FB17F914838F5FDD
:1024600083708A8388818F5F888381E0DF91CF9139
:102470001F910F91089580E0F9CFCF93DF93FC0176
:10248000EA01A38182818A17B9F0AE0FBF2FB11D77
:1024900014968C9187FB992790F98F77DB018C93A9
:1024A000988383818F5F8370838381818F5F818332
:1024B00081E0DF91CF91089580E0FBCF462F682F18
:1024C00081E892E00E941D120895AB01BC0181E8F1
:1024D00092E00E943D120895AEE0B0E0E2E7F2E142
:1024E0000C94572780918002882351F0109280022B
:1024F0008091830280938402809181028093820282
:102500000E945F130E940212182F882361F110E0CD
:102510008CEFF82E9DEFE92E1CC01E858D8519834A
:10252000882331F1EA820E94811FBC0149815A81CE
:1025300082E091E00E94CD031F83E8860E94811F04
:10254000682F82E0792F4F81588590E00E94CD035B
:10255000102FBE01635F7F4FCE010E960E94651261
:10256000082F8111DACF812F2E96E6E00C94732785
:10257000FA820E94811FBC0149815A8183E091E067
:102580000E94CD031F83F8860E94811F682F83E07D
:10259000D9CF8FE891E00197F1F700C000000895CE
:1025A0004AB181E9861B8F7021E030E0B90102C099
:1025B000660F771F8A95E2F7CB01962F90959423AB
:1025C0009AB99BB1892B8BB9089589B190E021E923
:1025D000261B2F7002C0959587952A95E2F781708A
:1025E00008950895CF93DF93C0E080918902C817C2
:1025F00060F00E94C912C0E080918902C81778F08B
:102600000E94F112DF91CF91089560E08C2F0E941B
:10261000D01261E08C2F0E94D012CF5FE6CF60E035
:102620008C2F0E94E512D82F61E08C2F0E94E512BA
:10263000EC2FF0E0E557FD4F880F8D2B8083CF5FA7
:10264000DBCF81E0809389020E94F21208951F93EC
:10265000CF93DF93182F440F642BC82FD0E0DE01F7
:10266000A557BD4FEC918E2F8370681721F1EE0FA7
:10267000EE0FE62BEC93EF70F0E0EC56FE4FC657F2
:10268000DD4F90818881980F9883923024F060E02C
:10269000812F0E945E1288818F3F24F461E0812F98
:1026A0000E945E128881082E000C990B62E070E097
:1026B0000E942A278883DF91CF911F910895CF939D
:1026C000DF93C0E080918902C81718F0DF91CF91A5
:1026D000089561E08C2F0E94E512D82F60E08C2FC6
:1026E0000E94E512682F4D2F8C2F0E942713CF5F79
:1026F000E9CF0E94A50C089580E00E949E10817091
:1027000008950E9463112FEF86E791E021508040E9
:102710009040E1F700C000000E9463110E947C130A
:10272000882321F00E9479130E94DD1F08950E94E2
:102730008113089584E0089550E0440F551F94E1FB
:10274000699F400D511D112490E5899F400D511D39
:102750001124CA01899608950F931F93CF93DF9395
:10276000982F962B9430B8F44A30A8F40E949C130A
:102770008C010E94AC27C82FD0E0DC2FCC27C801E9
:1027800001960E94AC279E01282BC901DF91CF91B1
:102790001F910F91089580E090E0F8CF0F931F9361
:1027A000CF93DF93122F032F982F962B943068F43A
:1027B0004A3058F40E949C13EC01602F0E94CA27F3
:1027C000612FCE0101960E94CA27DF91CF911F9100
:1027D0000F9108950F931F93CF93DF93843048F5A3
:1027E000611127C024E0829F8001112407591E4FE8
:1027F000C8014423A1F00E94AC27C82FD0E0DC2FF1
:10280000CC2781E090E0800F911F0E94AC279E01B1
:10281000282BC901DF91CF911F910F910895029646
:102820000E94AC27C82FD0E0DC2FCC2783E090E0BB
:10283000EACF80E090E0EECF1F93CF93DF93962F07
:10284000122F632F8430A0F4911112C094E0899F5D
:10285000E0011124C759DE4FCE01442369F00E94E4
:10286000CA2781E090E0612F8C0F9D1F0E94CA272C
:10287000DF91CF911F91089502960E94CA2783E0AD
:1028800090E0F1CF1F93CF93DF93C0E0D0E011C071
:10289000412F6D2F8C2F0E9467029C01412F6D2FBD
:1028A0008C2F0E94CE131F5F1A3091F7DF5FD43058
:1028B00011F010E0EDCF41E060E08C2F0E94830228
:1028C0009C0141E060E08C2F0E941C1440E060E01D
:1028D0008C2F0E9483029C0140E060E08C2F0E94BC
:1028E0001C14CF5FC43091F6DF91CF911F910895F2
:1028F000EF92FF920F931F93CF93DF938C01EA0126
:102900007A01E60EF71ECE15DF0529F4CDB7DEB746
:10291000E6E00C947327003481E0180740F4C80106
:1029200089960E94AC2789930F5F1F4FECCF80E000
:10293000FACFEF92FF920F931F93CF93DF938C0107
:10294000EA017A01E60EF71ECE15DF0529F4CDB7B0
:10295000DEB7E6E00C947327003481E0180728F412
:102960006881C80189960E94CA2721960F5F1F4F70
:10297000EBCF982F962B943028F44A3018F40E940D
:10298000AC13089580E090E00895843028F461113C
:1029900003C00E94EA13089580E090E0089580E16A
:1029A000089587E892E00895EF92FF920F931F93A6
:1029B000CF93DF938C01EA017A01E60EF71ECE1564
:1029C000DF0529F4CDB7DEB7E6E00C9473270738AE
:1029D00082E0180748F4C80187589E4F0E94AC2730
:1029E00089930F5F1F4FEBCF80E0FACFEF92FF92FA
:1029F0000F931F93CF93DF938C01EA017A01E60EC8
:102A0000F71ECE15DF0529F4CDB7DEB7E6E00C944E
:102A10007327073882E0180730F46881C8018758A7
:102A20009E4F0E94CA2721960F5F1F4FEACFCF9378
:102A3000DF93C9E7D1E060E0CE010E94CA2721966A
:102A4000C11584E0D807B9F7DF91CF910895A8E0C8
:102A5000B0E0EDE2F5E10C945527F82E2FE02817B1
:102A600008F46FC08FEF93E00E94AC27811169C01A
:102A700009E711E0F11038C01A821982FE0133967D
:102A800086E0DF011D928A95E9F76801BFEFCB1A56
:102A9000DB0AC8010E94AC2789831A82882309F4C3
:102AA00050C08130D1F4780122E0E20EF11CC60161
:102AB0000E94AC278A83882309F443C09FEF980FB4
:102AC0009330F8F4680183E0C80ED11CC7010E945E
:102AD000AC278B838823A9F11C8260E0CE0101968C
:102AE0000E94E6198601D1CF011584E0180749F14B
:102AF000C8010E94AC270F5F1F4F8111F5CFFA94D8
:102B0000B9CF8430B9F402E010E0C701AFEFEA1AA0
:102B1000FA0A0E94AC27E1E0F0E0EC0FFD1FE00FA5
:102B2000F11F8083882369F08C3731F4FE01E00FB8
:102B3000F11F12826701D1CF0F5F1F4F07301105C0
:102B400021F72896E8E00C947127CF93DF93EB01EF
:102B500086319C4719F50E947C0B9D819923A1F039
:102B60008A7A91E0811101C090E090938C028823D1
:102B700049F085E30E946A1E0E94360C80E0DF91D6
:102B8000CF91089589E2F6CF80918C02882321F0BD
:102B900085E30E94811EF0CF89E2FBCF81E0EFCF79
:102BA000CF93DF93EC01FB018581882309F4D2C028
:102BB0009E0130572332310508F0B2C00E94C20C8A
:102BC0009093B0028093AF02FE01E150F047E232F1
:102BD000F10520F4E45FF74D0C943E278091AF029D
:102BE00081608093AF0293C08091B002886080932F
:102BF000B0028DC08091AF028260F3CF8091AF02AE
:102C00008460EFCF8091AF028860EBCF8091B002FB
:102C10008160EDCF8091B0028260E9CF8091AF02F8
:102C20008061DFCF8091AF028062DBCF8091AF0205
:102C30008064D7CF0E9402078091AF028068D1CF15
:102C40008091AF028C60CDCF8091B0028360CFCFF6
:102C50008091AF028E7FC5CF8091B002877FC7CFB2
:102C60008091AF028D7FBDCF8091AF028B7FB9CFB6
:102C70008091AF02877FB5CF8091B0028E7FB7CFB2
:102C80008091B0028D7FB3CF8091AF028F7EA9CFAC
:102C90008091AF028F7DA5CF8091AF028F7BA1CFB6
:102CA0000E9402078091AF028F779BCF8091AF0285
:102CB000837F97CF8091B0028C7F99CF8091AF02B4
:102CC00082FB992790F921E0922790FB82F990FBF3
:102CD00083F987CF8091B002982F909591708E7F65
:102CE000892B90FB81F983CF9091AF02892F8F7B45
:102CF00096FF806476CF0E9402079091AF02892FE1
:102D000097FB87F980586DCF81E00E94520D80912A
:102D1000AF029091B0020E94C70C0E94020780E0AF
:102D2000DF91CF91089580E0F0CF9091AF02892F8D
:102D30008F7E94FF806155CF9091AF02892F8E7F57
:102D400090FF81604ECF9091B002892F877F93FFD3
:102D500088604DCF81E0E4CF282F35EB2303C001FD
:102D6000112497FF04C080589109892F0895805835
:102D70009F4FFBCF8091930280FF0DC060910901AE
:102D800070E0660F771F60387105C0F56115710539
:102D9000B9F1862F089581FF07C06091090184E091
:102DA000689FB0011124EFCF82FF04C06091090138
:102DB00088E0F6CF809192028823E9F09091080193
:102DC0006091090170E0891730F093E0660F771F7A
:102DD0009A95E1F7D8CF869F9001879F300D1124F7
:102DE00083E0220F331F8A95E1F7692F70E0C90154
:102DF0000E942A27C8CF68E070E0CBCF8FE7089504
:102E000081E008958091930280FF0CC060910501DC
:102E100070E075956795759567956115710561F118
:102E2000862F089581FF06C06091050170E07595B9
:102E30006795F3CF6091050170E082FD15C0209188
:102E400091022223B1F0909104016091050170E09C
:102E5000291750F4269FA001279F500D1124692F98
:102E600070E0CA010E942A2760387105B0F28FE72E
:102E7000089561E070E0D4CF81E0089590919602CA
:102E800020919702922B20919902922B20919802E7
:102E9000922B992331F098E09093920291E09093D5
:102EA00091028D3C31F40E94BA168195809397026D
:102EB0000895E2E3E80FE231B0F5F0E0E25DF74DAE
:102EC0000C943E270E94BA16F1CF0E94BA16819543
:102ED0008093960208950E94BA16FACF0E940217B4
:102EE0008093980208950E9402178195F9CF0E945D
:102EF000021781958093990208950E940217FACFD4
:102F0000815D990B21E030E001C0220F8A95EAF73C
:102F100080919502822B809395020895809193026F
:102F20008160809393020895809193028260F9CF2B
:102F3000809193028460F5CF409196028D3C59F4C4
:102F40008091970287FF0DC010929702442359F495
:102F50001092920208C08E3C81F48091970218165C
:102F60009CF3442381F08091980290919902892BDF
:102F7000811159C01092910208958F3C41F447FF8E
:102F8000F0CF10929602809197028823E0CF803D87
:102F900019F41416B4F3E5CF90919802893D29F401
:102FA0001916FCF610929802DCCF8A3D19F497FFAF
:102FB000D8CFF8CF909199028B3D29F497FFD1CFCC
:102FC00010929902CECF8C3D19F41916CCF3C9CFCB
:102FD0009FE2980F983090F4815D990B21E030E0EA
:102FE000B90102C0660F771F8A95E2F7CB01809581
:102FF00090919502892380939502B3CF8D3D31F452
:10300000809193028E7F80939302ABCF8E3D21F40B
:10301000809193028D7FF7CF8F3D09F0A2CF8091F1
:1030200093028B7FF0CF08950E94811F209196021A
:1030300030919702232B222321F080938F029093CB
:1030400090022091980230919902232B222321F0A3
:1030500080938D0290938E0284E992E00E94601D1D
:10306000089586E0E4E9F2E0DF011D928A95E9F730
:103070001092920210929102109293020895FC0114
:10308000828181110DC0838181110AC084818111E7
:1030900007C081E09581911101C080E081700895A1
:1030A00081E0FCCFA6E0B0E0E8E5F8E10C94582719
:1030B00086E0E4E9F2E09E012F5F3F4FD9010190E5
:1030C0000D928A95E1F71092960210929702109253
:1030D0009802109299028B819C81892B8901882307
:1030E00091F080918F02909190020E94AA1F9C0102
:1030F000809192028823C9F140910A0150E0421761
:10310000530708F43FC08D819E81892B882399F055
:1031100080918D0290918E020E94AA1F9C01809145
:103120009102882309F467C04091060150E04217DC
:10313000530708F46EC0B80184E992E00E94B21E01
:10314000811105C084E992E00E943F1881110E941C
:10315000141886E0F801A4E9B2E001900D928A9576
:10316000E1F72696E5E00C94742740910B019AE074
:10317000499FA00111244217530728F68F5F8093BF
:10318000920202C08F3FD1F7FB80FF2059F00E94CE
:10319000BA1691E01F140CF09FEF899F802D112427
:1031A00080939602FC80FF2059F00E94BA1691E0AD
:1031B0001F140CF09FEF899F802D1124809397029C
:1031C00080919602882309F49ECFF0909702FF2009
:1031D00009F499CF0E94AC16811101C081E080935F
:1031E00096028F2D0E94AC16882319F080939702C7
:1031F0008ACF81E0FBCF409107019AE0499FA0016F
:1032000011244217530708F096CF8F5F80939102E5
:1032100002C08F3FD1F7FD80FF2059F00E940217B6
:1032200091E01F140CF09FEF899F802D1124809353
:103230009802FE80FF2059F00E94021791E01F14AF
:103240000CF09FEF899F802D11248093990280912B
:103250009802882309F46FCFF0909902FF2009F4B7
:103260006ACF0E94AC16811101C081E08093980260
:103270008F2D0E94AC16882319F0809399025BCFA2
:1032800081E0FBCFA0E0B0E0E8E4F9E10C94542742
:10329000E82FF0E0E450FE4FB490282F26952695B5
:1032A000269530E0F901E456FD4F0491877010E057
:1032B000082E02C0159507950A94E2F701701127B0
:1032C000F901E457FD4FE490F12C082E02C0F5946B
:1032D000E7940A94E2F791E0E922FF24F901E45827
:1032E000FD4FC491D0E002C0D595C7958A95E2F70D
:1032F000C170DD27C62ED12C0115110549F5E11449
:10330000F10431F086EE0E941004C601009771F5B9
:10331000B6018B2D0E948B04C601009779F5E1144C
:10332000F104A1F50115110531F081EE0E94580458
:10333000C6010097C9F5CD2B31F08CE20E94A304A1
:10334000C114D104C9F5CDB7DEB7E9E00C947027FC
:1033500081EE0E941004C601009789F2EFE9FFE0B8
:103360003197F1F700C000000197F6CFEFE9FFE0D9
:103370003197F1F700C000000197C8CFEFE9FFE0F7
:103380003197F1F700C000000197C7CF86EE0E9489
:103390005804C601009731F2EFE9FFE03197F1F7E9
:1033A00000C000000197F6CFEFE9FFE03197F1F799
:1033B00000C000000197BDCF8FE99FE00197F1F7B2
:1033C00000C0000091E0C91AD108BACFEF92FF9275
:1033D0001F93CF93DF93EC01162F8881882309F484
:1033E0005AC0813009F053C08981813071F47E0167
:1033F00082E0E80EF11C8A810E94A304E701812F7C
:1034000090E00097E1F52196E8CF823041F47E010B
:10341000E2E0EE0EF11C8A810E941004EFCF8330AF
:1034200041F47E01F2E0EF0EF11C8A810E94580403
:10343000E5CF843011F02196E2CF2A81229680E0F8
:1034400090E06AE0AE014F5F5F4F2053330B2A30AC
:10345000310550F0009799F2EFE9FFE03197F1F76D
:1034600000C000000197F6CF689FF001699FF00D42
:103470001124C9018E0F9F1F2981EA01E3CFEFE9D3
:10348000FFE03197F1F700C000000197BACF612F3C
:103490000E944219B8CFDF91CF911F91FF90EF901A
:1034A00008950F931F93CF93DF93C42FD22FFC0166
:1034B00085818823C9F040939C020E94811F9093CC
:1034C0009B0280939A0280E28C0F883040F4C77090
:1034D00081E001C0880FCA95EAF70E94AC04DF9131
:1034E000CF911F910F91089510919C0214133CC02D
:1034F00080919A0290919B020E94AA1F883C91059C
:1035000098F5C0E2CD0F1D1741F180E2810F8830A0
:1035100040F4177081E001C0880F1A95EAF70E9405
:10352000B304C83020F0802F0E94A304D8CF91E0CC
:103530008D2F877001C0990F8A95EAF7892F0E9415
:10354000AC04802F0E94A304D77081E001C0880FD3
:10355000DA95EAF70E94B304C2CF802F0E94A30439
:10356000C83008F0BCCFF0CF80E28C0F883008F074
:10357000B6CFC77081E001C0880FCA95EAF7EACFDD
:103580000F93FC01CB01E851FC47E730F10590F5C2
:10359000E05CF74D0C943E2706E221EE41EE6AE135
:1035A0007CE70E94511A80E00F91089507E225EE12
:1035B00045EE6BE17CE7F5CF06E221EE40EE68E1F7
:1035C0007CE7EFCF07E225EE44EE69E17CE7E9CF47
:1035D00006E221EE42EE6CE17CE7E3CF07E225EE66
:1035E00046EE6DE17CE7DDCF08E221E045EE6EE1DD
:1035F0007CE7D7CFFB018581811110929C0281E08D
:10360000D3CFCF93DF939C01FB0127378CE738079B
:1036100039F028373C47F1F081E0DF91CF910895F0
:103620008581882391F00E94331B0E947C070E94B1
:10363000391BD82F0E94361BC82F0E94331B4D2FD9
:103640006C2F0E94BD0880E0E8CF0E94331B0E94CF
:103650008807EDCF8581882319F00E94361BE5CFBE
:103660000E94361BF4CF80910E01089580910D01C8
:10367000089580910C01089585E290E00E94AC27A6
:10368000843289F486E290E00E94AC27813159F4BB
:1036900087E290E00E94AC2791E0863209F090E04A
:1036A000892F8170089580E0FCCF882381F064E247
:1036B00085E290E00E94CA2761E186E290E00E94E4
:1036C000CA2766E287E290E00E94CA2708956FEF5A
:1036D00085E290E00E94CA276FEF86E290E00E94A8
:1036E000CA276FEFEFCF0895A4E0B0E0EAE7FBE16F
:1036F0000C945B2788E290E00E94AC27282F30E0F2
:1037000040E050E0CA01B9012496E2E00C9477272A
:103710000895CF93C62F0E94881B6C2F88E290E0FB
:103720000E94CA27CF91089580E00E94551B60E057
:1037300070E0CB010E94891B0E9442140E94171561
:1037400081E00E94551B08950E94731B0E94741B08
:103750000E94881B0E943C1B811102C00E94941B86
:10376000089508959C01FB018581882351F0A901EA
:1037700057574038510530F4822F0E94271580E0BA
:10378000089581E008952FEFFC01208308950E94A1
:10379000C31B089580E00895CF92DF92FF920F93AC
:1037A0001F93CF93DF93CDB7DEB72E970FB6F89464
:1037B000DEBF0FBECDBF8D839E83F62E8D819E8191
:1037C0000E94CA1B811115C0AD81BE81EC91E150F0
:1037D000E53140F5F0E0E95BF74D0C943E27ED81D3
:1037E000FE8111828CE082836F2D8D819E810E94EB
:1037F0005F202E960FB6F894DEBF0FBECDBFDF91CF
:10380000CF911F910F91FF90DF90CF900895AD81E0
:10381000BE8111968C91833099F148F4813081F00A
:103820008230E9F08FEFAD81BE818C93DDCF8430A3
:10383000C9F7ED81FE811282138214821582D4CFE2
:103840000E948D1F0E9444276F83788789879A87FB
:10385000ED81FE816283738384839583C5CF0E944B
:10386000741B0E9444276B877C878D879E87AD8160
:10387000BE8112966D937D938D939C931597B4CFD3
:10388000ED81FE81028110E06F01B2E0CB0ED11C10
:10389000043011050CF0A8CF802F0E949E10D60195
:1038A00011969C93119712968C930F5F1F4FEDCF3B
:1038B000ED81FE818181823049F0853009F0B2CFFF
:1038C000ED81FE8182810E94B11B8ECFAD81BE81D0
:1038D00012968D919D910D90BC91A02D89839A8314
:1038E000AB83BC83BC01CD010E9444270E94891B8D
:1038F0007BCFAD81BE8113964C91139712966C913C
:10390000129711968C910E94AC13982789279827BB
:10391000ED81FE819583848367CFAD81BE8114964E
:103920002D913C91159732272327322713964C91DE
:10393000139712966C91129711968C910E94CE1348
:1039400053CF0E94421450CF6F2D8D819E810E94D3
:10395000C71B4ACF0E94CF14ED81FE81818344CFE3
:103960000E94D114982789279827AD81BE8112968D
:103970009C938E93119738CFED81FE81638170E027
:1039800081819281AF014C5F5F4F982789279827EB
:103990000E94D41429CFAD81BE8113966C911397E8
:1039A00070E011968D919C911297AD014C5F5F4F25
:1039B0009827892798270E94F61416CF0E9417157A
:1039C00013CF0E949A13C8CFAD81BE8113966C911C
:1039D000139770E011968D919C911297AD014C5FF9
:1039E0005F4F9827892798270E947814FDCEED8194
:1039F000FE81638170E081819281AF014C5F5F4FF6
:103A00009827892798270E949914EECE41E0AD812E
:103A1000BE8113968C91811101C040E0ED81FE8141
:103A2000628181810E94EA13982789279827AD81B6
:103A3000BE8115969C938E931497D6CEED81FE8110
:103A40002481358132272327322741E08381811168
:103A500001C040E0AD81BE8112966C911297119623
:103A60008C910E941C14C0CE9093A2028093A1025C
:103A70000895E091A102F091A202309729F00190FF
:103A8000F081E02D0995089580E00895E091A1026C
:103A9000F091A202309721F00280F381E02D099588
:103AA0000895DC01E091A102F091A202309739F073
:103AB00086E08C930480F581E02DCD010995089571
:103AC000DC01E091A102F091A202309739F082E08E
:103AD0008C930680F781E02DCD0109950895A3E030
:103AE000B0E0E5E7FDE10C945B279C0180919F022B
:103AF0009091A00282179307A1F03093A002209327
:103B00009F02E091A102F091A202309751F083E070
:103B100089833B832A830084F185E02DCE010196C1
:103B200009952396E2E00C947727A3E0B0E0EBE957
:103B3000FDE10C945B279C0180919D0290919E0277
:103B400082179307A1F030939E0220939D02E0918B
:103B5000A102F091A202309751F084E089833B8367
:103B60002A830084F185E02DCE01019609952396E4
:103B7000E2E00C94772720910201309103012E5F3F
:103B80003F4F809119018823A9F08091AF0287FFF0
:103B900011C020910001309101012E5F3F4F9DE146
:103BA00080E0F90140812F5F3F4F41118F5F9150BD
:103BB000C0F7089595E0F4CF882321F19091190181
:103BC000992311F19091AF0297FF1EC0982F9695FF
:103BD00096959695803FB0F4E0910001F091010137
:103BE000E90FF11D228130E0877041E050E0BA0119
:103BF00002C0660F771F8A95E2F72623372381E0FC
:103C0000232B91F480E0089520910201309103016B
:103C1000F9013296285F3F4F9191981721F0E217F2
:103C2000F307D1F7EFCF81E008959C01FC013296B4
:103C30008FEF90E04191461751F08F3F19F44111F9
:103C400001C0892F9F5F9630A9F78F3F09F408952F
:103C5000280F311D87FD3A95F901628308959C0173
:103C6000FC013296285F3F4F8191861303C0DF012C
:103C700011971C92E217F307B9F70895FC01862FFC
:103C8000869586958695603F60F4E80FF11D677014
:103C900021E030E001C0220F6A95EAF78281822B91
:103CA00082830895FC01862F869586958695603FD0
:103CB00080F4E80FF11D677081E090E09C0102C084
:103CC000220F331F6A95E2F7B9016095828168235C
:103CD00062830895682F80911901882359F080919B
:103CE000AF0287FF07C080910001909101010E94FF
:103CF0003E1E089580910201909103010E94151EBD
:103D00000895682F80911901882359F08091AF029E
:103D100087FF07C080910001909101010E94521E0F
:103D2000089580910201909103010E942F1E089531
:103D300080911901882379F08091AF0287FF0BC031
:103D4000E0910001F091010132968EE1DF011D92B8
:103D50008A95E9F70895E0910201F0910301329606
:103D600086E0F4CFDC01FB0111969C9111978181D3
:103D7000981322C012968C911297882319F0928181
:103D800089131AC013968C911397882319F0938185
:103D9000891312C015968C911597882319F0958177
:103DA00089130AC014969C91992321F081E0248103
:103DB000291303C080E001C081E081700895089557
:103DC0000E94DF1E08958F5F8093A3020E94E01E71
:103DD000089583E08093A3020E94E01E08950E944C
:103DE000E31E089581E08093A3020E94E01E0895DF
:103DF0000E94F21E0895089508950E94FC1E0895E1
:103E0000089508950E94FB1E0895CF930E94001FFD
:103E10000E9463110E94011FC0E08C2F0E949E101F
:103E2000892B31F4CF5FC430C1F780E0CF91089582
:103E300081E0FCCF85B7806885BF85B7806885BF86
:103E400008951F921FB61F9211248F939F93AF93D3
:103E5000BF938091A402811113C08091C1029091FF
:103E6000C202A091C302B091C4024196A11DB11D2E
:103E70008093C1029093C202A093C302B093C40284
:103E8000BF91AF919F918F911F901FBE1F9018956A
:103E90008091C902843031F10E9484031092A402FF
:103EA00088E190E020E40FB6F894A8958093600034
:103EB0000FBE2093600083B7817F846083BF83B788
:103EC000816083BF7894889583B78E7F83BF0FB658
:103ED000F894A895809160008861809360001092AA
:103EE00060000FBE08950E9402070E948903089592
:103EF00082E084BD93E095BD9AEF97BD80936E00FC
:103F000008952FB7F8948091C1029091C202A091B8
:103F1000C302B091C4022FBF0895A4E0B0E0E3E96A
:103F2000FFE10C945B278FB7F8942091C102309188
:103F3000C2024091C3025091C40229833A834B8349
:103F40005C838FBF69817A818B819C812496E2E0BA
:103F50000C9477279C014FB7F8948091C1029091FF
:103F6000C202A091C302B091C4024FBF821B930B47
:103F7000089578941F921FB61F9211248F939F93D8
:103F8000AF93BF938091C1029091C202A091C302EE
:103F9000B091C4020196A11DB11D8093C1029093FE
:103FA000C202A093C302B093C402BF91AF919F918C
:103FB0008F911F901FBE1F90189581E08093E000A5
:103FC00080E28093D8001092C9008FE19EE40197AF
:103FD000F1F700C0000087E090EBDC018093D20293
:103FE0009093D302A093D402B093D50288E19CE0D1
:103FF0000FB6F894A895809360000FBE9093600070
:10400000FFCF88E19CE00FB6F894A89580936000FC
:104010000FBE90936000FFCF8091AD020895282FCE
:10402000CB01BA013091C9023430E1F42F702093F2
:10403000E9002FEF3091E80035FD07C035ED3A95E6
:10404000F1F7000021502111F5CF2091E80025FF64
:1040500009C040E050E00E9459228091E8008E772C
:104060008093E8000895BC0143E050E084E00E94A2
:104070000F200895BC0146E050E084E00E940F202C
:104080000895BC0140E250E084E00E940F200895B2
:10409000CF93DF93D82FC92F48E050E0682F792FB6
:1040A00081E00E940F2088E0ED2FFC2FA5EAB2E00E
:1040B00001900D928A95E1F7DF91CF910895792FC4
:1040C000603231F440E250E0682F82E00E940F201D
:1040D00008958091C802811109C00E9430240E9475
:1040E0008D248091E20084608093E2000895109214
:1040F000C80208950E94F21E08956091C50281E0F1
:10410000611101C080E00E94E91E08959091C902EA
:1041100081E0943009F080E06091C5020E94EF1EBA
:10412000089542E061EC81E00E94AC2342E261EC40
:1041300084E00E94AC2342E261EC82E00E94AC2366
:1041400042E260EC83E00E94AC239091C90281E0DE
:10415000943009F080E06091C5020E94E31E08954A
:104160008091CB02893089F148F4823009F4A1C0F2
:10417000833009F45BC0813041F008958A3009F43E
:1041800088C08B3009F46DC008958091CA02813ACD
:1041900009F04BC08091E800877F8093E800809110
:1041A000CE029091CF02892B61F060E080E090E038
:1041B00070E00E94F7228091E8008B778093E800FE
:1041C000089568E085EA92E0F3CF8091CA028132D7
:1041D00061F58091CE029091CF028D7F892B29F5D8
:1041E0008091E800877F8093E8008091E80082FF5B
:1041F00018C09091F3008091F200029731F4809101
:10420000F100813011F0863021F48091F10080932B
:10421000AD028091E8008B778093E8000E94E02354
:1042200004C08091C9028111E0CF08958091CA0233
:10423000813AD9F78091CE029091CF02892BA9F7CC
:104240008091E800877F8093E8008091E80080FFFC
:10425000FCCF809119018093F1008091E8008E7766
:10426000DBCF8091CA02813201F78091CE0290911A
:10427000CF02892BD1F68091E800877F8093E800F8
:104280000E94E0238091CC02809319010E940207D2
:1042900008958091CA02813241F68091E800877FBB
:1042A0008093E8000E94E0238091CD028093AE02CB
:1042B00008958091CA02813A09F0B7CF8091E80051
:1042C000877F8093E8008091E80080FFFCCF809199
:1042D000AE02C1CF84B7877F84BF0FB6F894A8958C
:1042E00080916000886180936000109260000FBE32
:1042F00080E890E00FB6F89480936100909361009D
:104300000FBE0E94F81E08950E9430240E948D2442
:10431000E2EEF0E080818460808378940E94102730
:1043200008958FE091E00E94341D08958091C902A4
:10433000853031F48091C902853019F00E94731FD5
:1043400008950E94481F8091C702882399F30E9414
:10435000051F882379F30E9443220E940207EACFB7
:10436000A0E2B0E0E6EBF1E20C945B278091C90299
:10437000843081F483E08093E9008091E80082FF3B
:1043800009C08091E80085FD09C08091E8008B7725
:104390008093E800A096E2E00C94772740E050E09C
:1043A00060E270E0CE0101960E94A8228091E800B0
:1043B0008B778093E80060E2CE0101960E94CC1BCF
:1043C000E9CF9A014091D0025091D1020E94E92197
:1043D0000895AC01CB01D901252F332723303105B6
:1043E00021F168F42130310509F443C02230310550
:1043F00009F444C080E090E020E030E024C02132A5
:10440000310551F122323105A9F78330910590F73A
:10441000FC01EE0FFF1FE955FE4F208131818C55C5
:104420009E4FFC01808190E00EC0CA019927413067
:1044300069F08230910569F0ECECF2E0892BD1F65D
:10444000849190E09F012D933C930895E8EBF2E076
:10445000F7CFECEAF2E0F4CF8330910558F6FC0197
:10446000EE0FFF1FE355FE4F2081318189E090E080
:10447000EACF82E190E02BE233E0E5CF8BE590E0FC
:1044800020ED32E0E0CF80E189BD82E189BD09B451
:1044900000FEFDCF8091D8008F7D8093D800809161
:1044A000E00082608093E0008091E00081FDFCCF1D
:1044B0000895AF92BF92CF92DF92FF920F931F9316
:1044C000CF93DF936C01EB018A010E94FF23F82E4A
:1044D000811123C00115110539F0F8018081918106
:1044E000C81BD90BC80ED91EA12CB12C2097A9F03E
:1044F0008091E80085FD22C08091E8008E7780934E
:10450000E80001151105A1F0F801808191818A0D63
:104510009B1D9183808385E0F82E8F2DDF91CF91B5
:104520001F910F91FF90DF90CF90BF90AF900895B3
:104530000E94FF238823E1F2F82EEFCFF60181914C
:104540006F018093F1002197FFEFAF1ABF0ACECF22
:10455000AF92BF92CF92DF92FF920F931F93CF93B0
:10456000DF936C01EB018A010E94FF23F82E811179
:1045700023C00115110539F0F80180819181C81B14
:10458000D90BC80ED91EA12CB12C2097A9F080916F
:10459000E80085FD22C08091E8008B778093E800D9
:1045A00001151105A1F0F801808191818A0D9B1DF3
:1045B0009183808385E0F82E8F2DDF91CF911F911D
:1045C0000F91FF90DF90CF90BF90AF9008950E9421
:1045D000FF238823E1F2F82EEFCF8091F100F6015E
:1045E00081936F012197FFEFAF1ABF0ACECFFC0175
:1045F0009B018091D0029091D1028617970718F005
:10460000672B61F0C90140E0009771F441110CC0C3
:104610008091E80082FF35C080E008958091E80035
:104620008E778093E800EECF2091C9022223A9F172
:104630002530A9F12091E80023FD2DC02091E8004C
:1046400022FDE6CF2091E80020FFDECF3091F3007D
:104650002091F200009719F02830310558F041E020
:104660002830310509F040E02091E8002E772093B2
:10467000E800CACF41914093F10001972F5F3F4F6F
:10468000E9CF8091C902882341F0853041F08091C3
:10469000E80083FFBDCF81E0089582E0089583E0C4
:1046A0000895FC019B018091D0029091D102861760
:1046B000970718F0672B61F0C90140E0009771F48B
:1046C00041110CC08091E80082FF36C080E008955F
:1046D0008091E8008E778093E800EECF2091C902A8
:1046E0002223B1F12530B1F12091E80023FD2EC045
:1046F0002091E80022FDE6CF2091E80020FFDECFE8
:104700003091F3002091F200009719F02830310524
:1047100058F041E02830310509F040E02091E800F0
:104720002E772093E800CACF44914093F100319650
:1047300001972F5F3F4FE8CF8091C902882341F056
:10474000853041F08091E80083FFBCCF81E008957F
:1047500082E0089583E00895982F973028F08F70B5
:104760008093E90081E008959093E900242F762F4B
:1047700050E0981731F07091EC002091ED005091CD
:10478000F00021FD02C09F5FE8CF3091EB003E7F3B
:104790003093EB003091ED003D7F3093ED00309190
:1047A000EB0031603093EB007093EC002093ED0050
:1047B0005093F0002091EE0027FDE5CF80E00895B2
:1047C0008091CA0287FF13C08091E80082FF06C073
:1047D0008091E8008B778093E80004C08091C90243
:1047E0008111F2CF08958091C9028823D9F3809175
:1047F000E80080FFF8CF8091E8008E77ECCF209121
:10480000E4003091E50095E6A9018091EC0081700B
:10481000882331F08091E80080FF06C080E0089591
:104820002091E80022FD1BC08091C902882391F0ED
:10483000853091F08091EB0085FD10C02091E4005F
:104840003091E5004217530701F391509111DCCFED
:1048500084E0089582E0089583E0089581E008955A
:104860000E949F240E94A724E0EEF0E080818160F6
:104870008083E8EDF0E080818F77808319BCA7ED1D
:10488000B0E08C918E7F8C9380818F7E808310929C
:10489000C80208950F931F93CF93DF930E949F2424
:1048A0000E94A724C8EDD0E088818F778883888113
:1048B0008068888388818F7D888319BC1092C902A3
:1048C0001092C5021092C7021092C60200EE10E0CC
:1048D000F80180818B7F808388818160888342E0BA
:1048E00060E080E00E94AC23E1EEF0E080818E7F0A
:1048F0008083E2EEF0E08081816080838081886047
:104900008083F80180818E7F8083888180618883A5
:10491000DF91CF911F910F910895E8EDF0E0808134
:104920008F7E8083E7EDF0E080818160808384E08A
:1049300082BF81E08093C8020E944A240895E8ED76
:10494000F0E080818E7F80831092E20008951092C3
:10495000DA001092E10008951F920F920FB60F92A5
:1049600011242F933F934F935F936F937F938F9374
:104970009F93AF93BF93EF93FF938091E10082FFEA
:104980000BC08091E20082FF07C08091E1008B7F25
:104990008093E1000E940F278091DA0080FF19C008
:1049A0008091D80080FF15C08091DA008E7F8093BF
:1049B000DA008091D90080FF94C080E189BD82E156
:1049C00089BD09B400FEFDCF81E08093C9020E9439
:1049D00069208091E10080FF19C08091E20080FF92
:1049E00015C08091E2008E7F8093E2008091E2000A
:1049F00080618093E2008091D80080628093D8002B
:104A000019BC85E08093C9020E947D208091E1005D
:104A100084FF29C08091E20084FF25C080E189BD28
:104A200082E189BD09B400FEFDCF8091D8008F7D61
:104A30008093D8008091E1008F7E8093E100809187
:104A4000E2008F7E8093E2008091E200816080939B
:104A5000E2008091C502882309F449C084E0809374
:104A6000C9020E9486208091E10083FF29C08091C5
:104A7000E20083FF25C08091E100877F8093E10001
:104A800082E08093C9021092C5028091E1008E7F7E
:104A90008093E1008091E2008E7F8093E20080911C
:104AA000E20080618093E20042E060E080E00E94EA
:104AB000AC238091F00088608093F0000E947A20FF
:104AC000FF91EF91BF91AF919F918F917F916F91E6
:104AD0005F914F913F912F910F900FBE0F901F90BC
:104AE000189519BC1092C9020E94772072CF80914C
:104AF000E30087FF02C083E0B2CF81E0B0CF1F9216
:104B00000F920FB60F921124FF920F931F932F93C2
:104B10003F934F935F936F937F938F939F93AF9345
:104B2000BF93CF93DF93EF93FF9309EE10E0F8016B
:104B30008081C091EC00C795CC27C7958F70FC2E63
:104B4000F82A1082C0EFD0E08881877F888378942C
:104B50000E94C825F8011082888188608883CF2D43
:104B6000CF70C083FF91EF91DF91CF91BF91AF9153
:104B70009F918F917F916F915F914F913F912F9175
:104B80001F910F91FF900F900FBE0F901F901895DF
:104B9000AAE2B0E0EEECF5E20C945A278AEC92E03F
:104BA000FC0101962091F100208322E0823D9207D2
:104BB000B9F70E94B0208091E80083FF38C080914F
:104BC000CA029091CB029A3090F5E92FF0E0E45AB6
:104BD000F74D0C943E27803889F0823841F580915A
:104BE000CE028F70873018F58093E9008091EB003A
:104BF00085FB882780F91092E90006C08091C602E3
:104C00009091C702911182609091E800977F9093F4
:104C1000E8008093F1001092F1008091E8008E7717
:104C200023C0811116C08091CC02813011F1809196
:104C3000E80083FF0AC08091E800877F8093E80046
:104C40008091EB0080628093EB00AA96E3E00C94E5
:104C50007627823061F78091CC02882389F0109208
:104C6000E9008091E800877F8093E8000E94E023BC
:104C7000DECF81E0933009F080E08093C702EFCF70
:104C80008091CE028F702FEF280F263080F6809310
:104C9000E9002091EB0020FFE2CF933031F48091C6
:104CA000EB0080628093EB00DACF9091EB00906193
:104CB0009093EB0021E030E0A90102C0440F551FA2
:104CC0008A95E2F74093EA001092EA008091EB00A7
:104CD0008860E8CF8111ABCF1091CC021F77809113
:104CE000E3008078812B8093E3008091E800877F48
:104CF0008093E8000E94E0238091E80080FFFCCFD1
:104D00008091E30080688093E30083E0111101C08B
:104D100082E08093C9028BCF8058823008F087CF21
:104D20008091CC029091CD028C3D53E0950799F58E
:104D300083E08A838AE289834FB7F894DE01139671
:104D400020E03EE051E2E32FF0E0509357008491E1
:104D500020FF03C082958F703F5F8F708A30C8F04C
:104D6000895C90E08D939D932F5F243161F74FBF55
:104D70008091E800877F8093E8006AE270E0CE01CE
:104D800001960E94F7228091E8008B778093E800DB
:104D90004ECF805DE6CF6091CE027091CF02AE0122
:104DA0004F5F5F4F0E94E121BC01892B09F43FCF87
:104DB0008091E800877F8093E80089819A810E9432
:104DC0005123E1CF803809F032CF8091E800877F0E
:104DD0008093E8008091C5028093F1001ECF81117D
:104DE00026CF9091CC02923008F021CF8091E8003C
:104DF000877F8093E8009093C5020E94E023809112
:104E0000C502882331F084E08093C9020E9491207A
:104E10000ECF8091E30087FDF6CF81E0F5CF0895B6
:104E2000CF938091C902882399F08091E900C091C5
:104E3000EC00C795CC27C7958F70C82B1092E9005E
:104E40008091E80083FD0E94C825CF70C093E900DF
:104E5000CF91089597FB072E16F4009407D077FDA5
:104E600009D00E94822707FC05D03EF490958195D9
:104E70009F4F0895709561957F4F0895EE0FFF1F26
:104E80000590F491E02D09946927962769277827E2
:104E90008727782708952F923F924F925F926F92C3
:104EA0007F928F929F92AF92BF92CF92DF92EF92BA
:104EB000FF920F931F93CF93DF93CDB7DEB7CA1B3B
:104EC000DB0B0FB6F894DEBF0FBECDBF09942A8866
:104ED000398848885F846E847D848C849B84AA840E
:104EE000B984C884DF80EE80FD800C811B81AA819B
:104EF000B981CE0FD11D0FB6F894DEBF0FBECDBF66
:104F0000ED010895AA1BBB1B51E107C0AA1FBB1FDF
:104F1000A617B70710F0A61BB70B881F991F5A9545
:104F2000A9F780959095BC01CD010895FB01DC01A6
:104F300004C08D910190801921F441505040C8F770
:104F4000881B990B0895FB01DC0102C001900D92B2
:104F500041505040D8F70895F999FECF92BD81BDD8
:104F6000F89A992780B50895A8E1B0E042E050E0B2
:104F70000C94F027DC01A40FB51F4150504048F0BD
:104F8000CB01840F951F2E910E94CB27415050409A
:104F9000D0F70895262FF999FECF92BD81BDF89ADA
:104FA000019700B4021639F01FBA20BD0FB6F8946D
:104FB000FA9AF99A0FBE08950396272F0E94CB27DD
:104FC0000E94CA27252F0E94CB27242F0C94CB2781
:104FD0000196272F0E94CB270C94CA27DC01CB0116
:104FE000FC01F999FECF06C0F2BDE1BDF89A3196F9
:104FF00000B40D9241505040B8F70895F894FFCF97
:10500000F804F8043F053F05A405C1052705270559
:10501000C60533064406440628169C163016FA15B3
:10502000FE1534160216381644160E16951612166C
:10503000481616164C1674161A1650167B1620169D
:1050400056165E1606163C160A16401624165A16F2
:105050006A1684169316F4152C16A3166217651794
:105060006B1780178017801780178017801780179D
:1050700080176E17731777177D178E179417981769
:10508000DC1AE21ACC1AD61AE81AEE1AF41AEF1B36
:10509000071C581C791C8D1CA11CA41CA41CA41C3E
:1050A000121C121CAA1CB01CBC1CCB1CDE1CE11C5C
:1050B000E41CF71C061D1E1DEB25112617261126C4
:0C50C00017266A268C261726E226EF260B
:1050CC003C025C02280850011E0A14010302010C68
:1050DC0020482041203A20332001E200E900EA0078
:1050EC00B500B600B700CD008301CC008A01920157
:1050FC0094012102230224022502260227022A02FD
:10510C00B300B4006F0070009F01CB019F02A0029E
:10511C00E200E900EA00B500B600B700CD0083015B
:10512C00CC008A019201940121022302240225025F
:10513C00260227022A02B300B4006F0070009F0100
:10514C00CB019F02A002946697C63435F4F5F6F7AE
:10515C003133323600FF0100010000FFFF00000177
:10516C000001FF004422B615043D035F03E202FB7D
:04517C00021B03000F
:00000001FF
